{
  "abi": [
    {
      "inputs": [
        {
          "internalType": "bytes32",
          "name": "_consensusLayerDepositRoot",
          "type": "bytes32"
        },
        {
          "internalType": "contract Eigen",
          "name": "_eigen",
          "type": "address"
        }
      ],
      "stateMutability": "nonpayable",
      "type": "constructor"
    },
    {
      "inputs": [],
      "name": "consensusLayerDepositRoot",
      "outputs": [
        {
          "internalType": "bytes32",
          "name": "",
          "type": "bytes32"
        }
      ],
      "stateMutability": "view",
      "type": "function"
    },
    {
      "inputs": [],
      "name": "depositContract",
      "outputs": [
        {
          "internalType": "contract IDepositContract",
          "name": "",
          "type": "address"
        }
      ],
      "stateMutability": "view",
      "type": "function"
    },
    {
      "inputs": [
        {
          "internalType": "contract IERC20",
          "name": "liquidStakeToken",
          "type": "address"
        },
        {
          "internalType": "contract IInvestmentStrategy",
          "name": "strategy",
          "type": "address"
        }
      ],
      "name": "depositETHIntoLiquidStaking",
      "outputs": [],
      "stateMutability": "payable",
      "type": "function"
    },
    {
      "inputs": [
        {
          "internalType": "uint256",
          "name": "amount",
          "type": "uint256"
        }
      ],
      "name": "depositEigen",
      "outputs": [],
      "stateMutability": "payable",
      "type": "function"
    },
    {
      "inputs": [
        {
          "internalType": "bytes",
          "name": "pubkey",
          "type": "bytes"
        },
        {
          "internalType": "bytes",
          "name": "signature",
          "type": "bytes"
        },
        {
          "internalType": "bytes32",
          "name": "depositDataRoot",
          "type": "bytes32"
        }
      ],
      "name": "depositEthIntoConsensusLayer",
      "outputs": [],
      "stateMutability": "payable",
      "type": "function"
    },
    {
      "inputs": [
        {
          "internalType": "bytes32",
          "name": "queryHash",
          "type": "bytes32"
        },
        {
          "internalType": "bytes32[]",
          "name": "proof",
          "type": "bytes32[]"
        },
        {
          "internalType": "address",
          "name": "depositer",
          "type": "address"
        },
        {
          "internalType": "bytes",
          "name": "signature",
          "type": "bytes"
        },
        {
          "internalType": "uint256",
          "name": "amount",
          "type": "uint256"
        }
      ],
      "name": "depositPOSProof",
      "outputs": [],
      "stateMutability": "nonpayable",
      "type": "function"
    },
    {
      "inputs": [
        {
          "internalType": "bytes32",
          "name": "",
          "type": "bytes32"
        },
        {
          "internalType": "address",
          "name": "",
          "type": "address"
        }
      ],
      "name": "depositProven",
      "outputs": [
        {
          "internalType": "bool",
          "name": "",
          "type": "bool"
        }
      ],
      "stateMutability": "view",
      "type": "function"
    },
    {
      "inputs": [],
      "name": "eigen",
      "outputs": [
        {
          "internalType": "contract Eigen",
          "name": "",
          "type": "address"
        }
      ],
      "stateMutability": "view",
      "type": "function"
    },
    {
      "inputs": [
        {
          "internalType": "contract IDepositContract",
          "name": "_depositContract",
          "type": "address"
        },
        {
          "internalType": "contract IInvestmentManager",
          "name": "_investmentManager",
          "type": "address"
        }
      ],
      "name": "initialize",
      "outputs": [],
      "stateMutability": "nonpayable",
      "type": "function"
    },
    {
      "inputs": [],
      "name": "investmentManager",
      "outputs": [
        {
          "internalType": "contract IInvestmentManager",
          "name": "",
          "type": "address"
        }
      ],
      "stateMutability": "view",
      "type": "function"
    },
    {
      "inputs": [
        {
          "internalType": "contract IERC20",
          "name": "",
          "type": "address"
        }
      ],
      "name": "isAllowedLiquidStakedToken",
      "outputs": [
        {
          "internalType": "bool",
          "name": "",
          "type": "bool"
        }
      ],
      "stateMutability": "view",
      "type": "function"
    },
    {
      "inputs": [],
      "name": "legacyDepositPermissionMessage",
      "outputs": [
        {
          "internalType": "bytes32",
          "name": "",
          "type": "bytes32"
        }
      ],
      "stateMutability": "view",
      "type": "function"
    },
    {
      "inputs": [],
      "name": "posMiddleware",
      "outputs": [
        {
          "internalType": "contract QueryManager",
          "name": "",
          "type": "address"
        }
      ],
      "stateMutability": "view",
      "type": "function"
    },
    {
      "inputs": [
        {
          "internalType": "bytes32[]",
          "name": "proof",
          "type": "bytes32[]"
        },
        {
          "internalType": "address",
          "name": "depositer",
          "type": "address"
        },
        {
          "internalType": "bytes",
          "name": "signature",
          "type": "bytes"
        },
        {
          "internalType": "uint256",
          "name": "amount",
          "type": "uint256"
        }
      ],
      "name": "proveLegacyConsensusLayerDeposit",
      "outputs": [],
      "stateMutability": "payable",
      "type": "function"
    },
    {
      "inputs": [],
      "name": "withdrawalCredentials",
      "outputs": [
        {
          "internalType": "bytes32",
          "name": "",
          "type": "bytes32"
        }
      ],
      "stateMutability": "view",
      "type": "function"
    }
  ],
  "bytecode": {
    "object": "0x60c060405234801561001057600080fd5b5060405161193538038061193583398101604081905261002f91610046565b6080919091526001600160a01b031660a052610083565b6000806040838503121561005957600080fd5b825160208401519092506001600160a01b038116811461007857600080fd5b809150509250929050565b60805160a05161186a6100cb6000396000818161021b0152610a820152600081816102b601528181610335015281816104e4015281816105540152610d50015261186a6000f3fe6080604052600436106100e85760003560e01c806366e12f481161008a578063bed1680e11610059578063bed1680e14610284578063c9286a48146102a4578063e94ad65b146102d8578063ff37bec4146102f857600080fd5b806366e12f48146101f6578063677c0c6714610209578063750483bc1461023d578063b0780cf81461025057600080fd5b8063485cc955116100c6578063485cc9551461017f5780634ac6731f1461019f5780634b31bb10146101b25780634cd79e0a146101d257600080fd5b80631ee19229146100ed5780631fdac0f71461012a5780633fc16f3f1461016a575b600080fd5b3480156100f957600080fd5b5060035461010d906001600160a01b031681565b6040516001600160a01b0390911681526020015b60405180910390f35b34801561013657600080fd5b5061015a610145366004611396565b60046020526000908152604090205460ff1681565b6040519015158152602001610121565b61017d610178366004611441565b610333565b005b34801561018b57600080fd5b5061017d61019a3660046114ce565b61061c565b61017d6101ad3660046114ce565b6106c6565b3480156101be57600080fd5b5060065461010d906001600160a01b031681565b3480156101de57600080fd5b506101e860015481565b604051908152602001610121565b61017d610204366004611507565b61092a565b34801561021557600080fd5b5061010d7f000000000000000000000000000000000000000000000000000000000000000081565b61017d61024b36600461157b565b610a33565b34801561025c57600080fd5b506101e87f656967656e4c61797252657374616b696e67596f754b6e6f774974426162617981565b34801561029057600080fd5b5061017d61029f366004611594565b610b58565b3480156102b057600080fd5b506101e87f000000000000000000000000000000000000000000000000000000000000000081565b3480156102e457600080fd5b5060025461010d906001600160a01b031681565b34801561030457600080fd5b5061015a61031336600461162b565b600560209081526000928352604080842090915290825290205460ff1681565b7f000000000000000000000000000000000000000000000000000000000000000060009081526005602090815260408083206001600160a01b038816845290915290205460ff16156103a05760405162461bcd60e51b815260040161039790611650565b60405180910390fd5b6040516000906103d69033907f656967656e4c61797252657374616b696e67596f754b6e6f774974426162617990602001611698565b604051602081830303815290604052805190602001209050846001600160a01b03166104388286868080601f016020809104026020016040519081016040528093929190818152602001838380828437600092019190915250610e6992505050565b6001600160a01b0316146104825760405162461bcd60e51b8152602060048201526011602482015270496e76616c6964207369676e617475726560781b6044820152606401610397565b60008583604051602001610497929190611698565b60405160208183030381529060405280519060200120905061050f8888808060200260200160405190810160405280939291908181526020018383602002808284376000920191909152507f00000000000000000000000000000000000000000000000000000000000000009250859150610e8d9050565b6105525760405162461bcd60e51b815260206004820152601460248201527324b73b30b634b21036b2b935b63290383937b7b360611b6044820152606401610397565b7f000000000000000000000000000000000000000000000000000000000000000060009081526005602090815260408083206001600160a01b038a81168086529190935292819020805460ff19166001179055600654905163085e859160e41b815260048101939093526024830186905216906385e85910906044016020604051808303816000875af11580156105ed573d6000803e3d6000fd5b505050506040513d601f19601f8201168201806040525081019061061191906116ba565b505050505050505050565b60005460ff16156106655760405162461bcd60e51b8152602060048201526013602482015272185b1c9958591e481a5b9a5d1a585b1a5e9959606a1b6044820152606401610397565b6740000000000000006bffffffffffffffffffffffff193060601b16176001908155600280546001600160a01b039485166001600160a01b03199182161790915560068054939094169216919091179091556000805460ff19169091179055565b6001600160a01b03821660009081526004602052604090205460ff1661073a5760405162461bcd60e51b815260206004820152602360248201527f4c6971756964207374616b696e6720746f6b656e206973206e6f7420616c6c6f6044820152621dd95960ea1b6064820152608401610397565b6040516370a0823160e01b81523060048201526000906001600160a01b038416906370a0823190602401602060405180830381865afa158015610781573d6000803e3d6000fd5b505050506040513d601f19601f820116820180604052508101906107a591906116ba565b90506107b18334610ea3565b6040516370a0823160e01b815230600482015281906001600160a01b038516906370a0823190602401602060405180830381865afa1580156107f7573d6000803e3d6000fd5b505050506040513d601f19601f8201168201806040525081019061081b91906116ba565b61082591906116e9565b60065460405163095ea7b360e01b81526001600160a01b0391821660048201526024810183905291925084169063095ea7b3906044016020604051808303816000875af115801561087a573d6000803e3d6000fd5b505050506040513d601f19601f8201168201806040525081019061089e9190611700565b50600654604051631493942b60e31b81523360048201526001600160a01b0384811660248301528581166044830152606482018490529091169063a49ca158906084016020604051808303816000875af1158015610900573d6000803e3d6000fd5b505050506040513d601f19601f8201168201806040525081019061092491906116ba565b50505050565b6002546001546040805160208082019390935281518082039093018352808201918290526304512a2360e31b9091526001600160a01b03909216916322895118913491610984918a918a91908a908a908a9060440161174b565b6000604051808303818588803b15801561099d57600080fd5b505af11580156109b1573d6000803e3d6000fd5b505060065460405163085e859160e41b81523360048201523460248201526001600160a01b0390911693506385e85910925060440190506020604051808303816000875af1158015610a07573d6000803e3d6000fd5b505050506040513d601f19601f82011682018060405250810190610a2b91906116ba565b505050505050565b600654604051637921219560e11b81523360048201526001600160a01b039182166024820152600060448201526064810183905260a06084820152600260a482015261060f60f31b60c48201527f00000000000000000000000000000000000000000000000000000000000000009091169063f242432a9060e401600060405180830381600087803b158015610ac857600080fd5b505af1158015610adc573d6000803e3d6000fd5b505060065460405163a4b748c160e01b81523360048201523460248201526001600160a01b03909116925063a4b748c191506044016020604051808303816000875af1158015610b30573d6000803e3d6000fd5b505050506040513d601f19601f82011682018060405250810190610b5491906116ba565b5050565b6003546040516307725e6560e51b8152600481018990526000916001600160a01b03169063ee4bcca090602401602060405180830381865afa158015610ba2573d6000803e3d6000fd5b505050506040513d601f19601f82011682018060405250810190610bc691906116ba565b60008181526005602090815260408083206001600160a01b038a16845290915290205490915060ff1615610c0c5760405162461bcd60e51b815260040161039790611650565b604051600090610c429033907f656967656e4c61797252657374616b696e67596f754b6e6f774974426162617990602001611698565b604051602081830303815290604052805190602001209050856001600160a01b0316610ca48287878080601f016020809104026020016040519081016040528093929190818152602001838380828437600092019190915250610e6992505050565b6001600160a01b031614610cee5760405162461bcd60e51b8152602060048201526011602482015270496e76616c6964207369676e617475726560781b6044820152606401610397565b60008684604051602001610d03929190611698565b604051602081830303815290604052805190602001209050610d7b8989808060200260200160405190810160405280939291908181526020018383602002808284376000920191909152507f00000000000000000000000000000000000000000000000000000000000000009250859150610e8d9050565b610dbe5760405162461bcd60e51b815260206004820152601460248201527324b73b30b634b21036b2b935b63290383937b7b360611b6044820152606401610397565b60008381526005602090815260408083206001600160a01b038b81168086529190935292819020805460ff19166001179055600654905163085e859160e41b815260048101939093526024830187905216906385e85910906044016020604051808303816000875af1158015610e38573d6000803e3d6000fd5b505050506040513d601f19601f82011682018060405250810190610e5c91906116ba565b5050505050505050505050565b6000806000610e788585610fc1565b91509150610e8581611031565b509392505050565b600082610e9a85846111ef565b14949350505050565b80471015610ef35760405162461bcd60e51b815260206004820152601d60248201527f416464726573733a20696e73756666696369656e742062616c616e63650000006044820152606401610397565b6000826001600160a01b03168260405160006040518083038185875af1925050503d8060008114610f40576040519150601f19603f3d011682016040523d82523d6000602084013e610f45565b606091505b5050905080610fbc5760405162461bcd60e51b815260206004820152603a60248201527f416464726573733a20756e61626c6520746f2073656e642076616c75652c207260448201527f6563697069656e74206d617920686176652072657665727465640000000000006064820152608401610397565b505050565b600080825160411415610ff85760208301516040840151606085015160001a610fec8782858561125b565b9450945050505061102a565b8251604014156110225760208301516040840151611017868383611348565b93509350505061102a565b506000905060025b9250929050565b6000816004811115611045576110456117d5565b141561104e5750565b6001816004811115611062576110626117d5565b14156110b05760405162461bcd60e51b815260206004820152601860248201527f45434453413a20696e76616c6964207369676e617475726500000000000000006044820152606401610397565b60028160048111156110c4576110c46117d5565b14156111125760405162461bcd60e51b815260206004820152601f60248201527f45434453413a20696e76616c6964207369676e6174757265206c656e677468006044820152606401610397565b6003816004811115611126576111266117d5565b141561117f5760405162461bcd60e51b815260206004820152602260248201527f45434453413a20696e76616c6964207369676e6174757265202773272076616c604482015261756560f01b6064820152608401610397565b6004816004811115611193576111936117d5565b14156111ec5760405162461bcd60e51b815260206004820152602260248201527f45434453413a20696e76616c6964207369676e6174757265202776272076616c604482015261756560f01b6064820152608401610397565b50565b600081815b8451811015610e85576000858281518110611211576112116117eb565b602002602001015190508083116112375760008381526020829052604090209250611248565b600081815260208490526040902092505b508061125381611801565b9150506111f4565b6000807f7fffffffffffffffffffffffffffffff5d576e7357a4501ddfe92f46681b20a0831115611292575060009050600361133f565b8460ff16601b141580156112aa57508460ff16601c14155b156112bb575060009050600461133f565b6040805160008082526020820180845289905260ff881692820192909252606081018690526080810185905260019060a0016020604051602081039080840390855afa15801561130f573d6000803e3d6000fd5b5050604051601f1901519150506001600160a01b0381166113385760006001925092505061133f565b9150600090505b94509492505050565b6000806001600160ff1b0383168161136560ff86901c601b61181c565b90506113738782888561125b565b935093505050935093915050565b6001600160a01b03811681146111ec57600080fd5b6000602082840312156113a857600080fd5b81356113b381611381565b9392505050565b60008083601f8401126113cc57600080fd5b50813567ffffffffffffffff8111156113e457600080fd5b6020830191508360208260051b850101111561102a57600080fd5b60008083601f84011261141157600080fd5b50813567ffffffffffffffff81111561142957600080fd5b60208301915083602082850101111561102a57600080fd5b6000806000806000806080878903121561145a57600080fd5b863567ffffffffffffffff8082111561147257600080fd5b61147e8a838b016113ba565b90985096506020890135915061149382611381565b909450604088013590808211156114a957600080fd5b506114b689828a016113ff565b979a9699509497949695606090950135949350505050565b600080604083850312156114e157600080fd5b82356114ec81611381565b915060208301356114fc81611381565b809150509250929050565b60008060008060006060868803121561151f57600080fd5b853567ffffffffffffffff8082111561153757600080fd5b61154389838a016113ff565b9097509550602088013591508082111561155c57600080fd5b50611569888289016113ff565b96999598509660400135949350505050565b60006020828403121561158d57600080fd5b5035919050565b600080600080600080600060a0888a0312156115af57600080fd5b87359650602088013567ffffffffffffffff808211156115ce57600080fd5b6115da8b838c016113ba565b909850965060408a013591506115ef82611381565b9094506060890135908082111561160557600080fd5b506116128a828b016113ff565b989b979a50959894979596608090950135949350505050565b6000806040838503121561163e57600080fd5b8235915060208301356114fc81611381565b60208082526028908201527f4465706f73697465722068617320616c72656164792070726f76656e207468656040820152676972207374616b6560c01b606082015260800190565b60609290921b6bffffffffffffffffffffffff19168252601482015260340190565b6000602082840312156116cc57600080fd5b5051919050565b634e487b7160e01b600052601160045260246000fd5b6000828210156116fb576116fb6116d3565b500390565b60006020828403121561171257600080fd5b815180151581146113b357600080fd5b81835281816020850137506000828201602090810191909152601f909101601f19169091010190565b60808152600061175f60808301888a611722565b602083820381850152875180835260005b8181101561178b578981018301518482018401528201611770565b8181111561179c5760008383860101525b50601f01601f19169190910183810382016040850152906117c08183018789611722565b92505050826060830152979650505050505050565b634e487b7160e01b600052602160045260246000fd5b634e487b7160e01b600052603260045260246000fd5b6000600019821415611815576118156116d3565b5060010190565b6000821982111561182f5761182f6116d3565b50019056fea26469706673582212205e63b9166a40f7bab9c25481e9be0cdbc036e11fddf8200b54e8407c7d7b831664736f6c634300080a0033",
    "linkReferences": {}
  }
}