{
  "abi": [
    {
      "inputs": [
        {
          "internalType": "address",
          "name": "currDisperser_",
          "type": "address"
        }
      ],
      "stateMutability": "nonpayable",
      "type": "constructor"
    },
    {
      "anonymous": false,
      "inputs": [
        {
          "indexed": false,
          "internalType": "address",
          "name": "challenger",
          "type": "address"
        },
        {
          "indexed": false,
          "internalType": "address",
          "name": "adversary",
          "type": "address"
        },
        {
          "indexed": false,
          "internalType": "bytes32",
          "name": "ferkleRoot",
          "type": "bytes32"
        },
        {
          "indexed": false,
          "internalType": "uint16",
          "name": "challengeType",
          "type": "uint16"
        }
      ],
      "name": "ChallengeSuccess",
      "type": "event"
    },
    {
      "anonymous": false,
      "inputs": [
        {
          "indexed": false,
          "internalType": "address",
          "name": "disperser",
          "type": "address"
        },
        {
          "indexed": false,
          "internalType": "bytes32",
          "name": "ferkleRoot",
          "type": "bytes32"
        }
      ],
      "name": "Commit",
      "type": "event"
    },
    {
      "anonymous": false,
      "inputs": [
        {
          "indexed": false,
          "internalType": "address",
          "name": "initializer",
          "type": "address"
        },
        {
          "indexed": false,
          "internalType": "bytes32",
          "name": "ferkleRoot",
          "type": "bytes32"
        },
        {
          "indexed": false,
          "internalType": "uint256",
          "name": "totalBytes",
          "type": "uint256"
        },
        {
          "indexed": false,
          "internalType": "uint24",
          "name": "quorum",
          "type": "uint24"
        }
      ],
      "name": "DataStoreInit",
      "type": "event"
    },
    {
      "anonymous": false,
      "inputs": [
        {
          "indexed": true,
          "internalType": "address",
          "name": "previousOwner",
          "type": "address"
        },
        {
          "indexed": true,
          "internalType": "address",
          "name": "newOwner",
          "type": "address"
        }
      ],
      "name": "OwnershipTransferred",
      "type": "event"
    },
    {
      "anonymous": false,
      "inputs": [
        {
          "indexed": false,
          "internalType": "uint8",
          "name": "typeEvent",
          "type": "uint8"
        },
        {
          "indexed": false,
          "internalType": "uint32",
          "name": "initiator",
          "type": "uint32"
        },
        {
          "indexed": false,
          "internalType": "uint32",
          "name": "numRegistrant",
          "type": "uint32"
        },
        {
          "indexed": false,
          "internalType": "string",
          "name": "initiatorSocket",
          "type": "string"
        }
      ],
      "name": "Registration",
      "type": "event"
    },
    {
      "inputs": [
        {
          "internalType": "uint64",
          "name": "dumpNumber",
          "type": "uint64"
        },
        {
          "internalType": "bytes32",
          "name": "ferkleRoot",
          "type": "bytes32"
        },
        {
          "internalType": "bytes32[]",
          "name": "rs",
          "type": "bytes32[]"
        },
        {
          "internalType": "bytes32[]",
          "name": "ss",
          "type": "bytes32[]"
        },
        {
          "internalType": "uint8[]",
          "name": "vs",
          "type": "uint8[]"
        }
      ],
      "name": "confirm",
      "outputs": [],
      "stateMutability": "payable",
      "type": "function"
    },
    {
      "inputs": [],
      "name": "currDisperser",
      "outputs": [
        {
          "internalType": "address",
          "name": "",
          "type": "address"
        }
      ],
      "stateMutability": "view",
      "type": "function"
    },
    {
      "inputs": [
        {
          "internalType": "bytes32",
          "name": "",
          "type": "bytes32"
        }
      ],
      "name": "dataStores",
      "outputs": [
        {
          "internalType": "uint64",
          "name": "dumpNumber",
          "type": "uint64"
        },
        {
          "internalType": "uint32",
          "name": "initTime",
          "type": "uint32"
        },
        {
          "internalType": "uint32",
          "name": "storePeriodLength",
          "type": "uint32"
        },
        {
          "internalType": "uint24",
          "name": "quorum",
          "type": "uint24"
        },
        {
          "internalType": "address",
          "name": "submitter",
          "type": "address"
        },
        {
          "internalType": "bool",
          "name": "commited",
          "type": "bool"
        }
      ],
      "stateMutability": "view",
      "type": "function"
    },
    {
      "inputs": [
        {
          "internalType": "uint64",
          "name": "dumpNumber",
          "type": "uint64"
        },
        {
          "internalType": "bytes32",
          "name": "ferkleRoot",
          "type": "bytes32"
        },
        {
          "internalType": "uint32",
          "name": "totalBytes",
          "type": "uint32"
        },
        {
          "internalType": "uint32",
          "name": "storePeriodLength",
          "type": "uint32"
        },
        {
          "internalType": "address",
          "name": "submitter",
          "type": "address"
        },
        {
          "internalType": "uint24",
          "name": "quorum",
          "type": "uint24"
        }
      ],
      "name": "initDataStore",
      "outputs": [],
      "stateMutability": "payable",
      "type": "function"
    },
    {
      "inputs": [
        {
          "internalType": "bytes32",
          "name": "",
          "type": "bytes32"
        },
        {
          "internalType": "address",
          "name": "",
          "type": "address"
        }
      ],
      "name": "isCodingProofDLNActive",
      "outputs": [
        {
          "internalType": "bool",
          "name": "",
          "type": "bool"
        }
      ],
      "stateMutability": "view",
      "type": "function"
    },
    {
      "inputs": [],
      "name": "nextRegistrantId",
      "outputs": [
        {
          "internalType": "uint32",
          "name": "",
          "type": "uint32"
        }
      ],
      "stateMutability": "view",
      "type": "function"
    },
    {
      "inputs": [],
      "name": "numRegistrant",
      "outputs": [
        {
          "internalType": "uint32",
          "name": "",
          "type": "uint32"
        }
      ],
      "stateMutability": "view",
      "type": "function"
    },
    {
      "inputs": [],
      "name": "owner",
      "outputs": [
        {
          "internalType": "address",
          "name": "",
          "type": "address"
        }
      ],
      "stateMutability": "view",
      "type": "function"
    },
    {
      "inputs": [
        {
          "internalType": "uint256",
          "name": "",
          "type": "uint256"
        }
      ],
      "name": "registrantList",
      "outputs": [
        {
          "internalType": "address",
          "name": "",
          "type": "address"
        }
      ],
      "stateMutability": "view",
      "type": "function"
    },
    {
      "inputs": [
        {
          "internalType": "address",
          "name": "",
          "type": "address"
        }
      ],
      "name": "registry",
      "outputs": [
        {
          "internalType": "string",
          "name": "socket",
          "type": "string"
        },
        {
          "internalType": "uint32",
          "name": "id",
          "type": "uint32"
        },
        {
          "internalType": "uint256",
          "name": "index",
          "type": "uint256"
        },
        {
          "internalType": "uint32",
          "name": "from",
          "type": "uint32"
        },
        {
          "internalType": "uint32",
          "name": "to",
          "type": "uint32"
        },
        {
          "internalType": "bool",
          "name": "active",
          "type": "bool"
        },
        {
          "internalType": "uint256",
          "name": "stake",
          "type": "uint256"
        }
      ],
      "stateMutability": "view",
      "type": "function"
    },
    {
      "inputs": [],
      "name": "renounceOwnership",
      "outputs": [],
      "stateMutability": "nonpayable",
      "type": "function"
    },
    {
      "inputs": [
        {
          "internalType": "address",
          "name": "newOwner",
          "type": "address"
        }
      ],
      "name": "transferOwnership",
      "outputs": [],
      "stateMutability": "nonpayable",
      "type": "function"
    }
  ],
  "bytecode": {
    "object": "0x608060405234801561001057600080fd5b5060405161111938038061111983398101604081905261002f916100c5565b61003833610075565b600180546001600160a01b039092166001600160a01b03199092169190911790556006805463ffffffff60201b19166401000000001790556100f5565b600080546001600160a01b038381166001600160a01b0319831681178455604051919092169283917f8be0079c531659141344cd1fd0a4f28419497f9722a3daafe3b4186f6b6457e09190a35050565b6000602082840312156100d757600080fd5b81516001600160a01b03811681146100ee57600080fd5b9392505050565b611015806101046000396000f3fe6080604052600436106100a75760003560e01c80638da5cb5b116100645780638da5cb5b1461019c578063a81c24a9146101ba578063cd11fc8714610205578063db961ec01461022a578063e3a8d230146102f9578063f2fde38b1461030c57600080fd5b8063038defd7146100ac578063255eaadf146100e857806349826b671461011a578063522131491461012f578063715018a6146101675780637522f4d01461017c575b600080fd5b3480156100b857600080fd5b506100cc6100c7366004610c69565b61032c565b6040516100df9796959493929190610c8b565b60405180910390f35b3480156100f457600080fd5b506006546101059063ffffffff1681565b60405163ffffffff90911681526020016100df565b61012d610128366004610d8f565b610404565b005b34801561013b57600080fd5b5060015461014f906001600160a01b031681565b6040516001600160a01b0390911681526020016100df565b34801561017357600080fd5b5061012d6105e4565b34801561018857600080fd5b5061014f610197366004610e43565b61064a565b3480156101a857600080fd5b506000546001600160a01b031661014f565b3480156101c657600080fd5b506101f56101d5366004610e5c565b600760209081526000928352604080842090915290825290205460ff1681565b60405190151581526020016100df565b34801561021157600080fd5b5060065461010590640100000000900463ffffffff1681565b34801561023657600080fd5b506102a7610245366004610e43565b6003602052600090815260409020805460019091015467ffffffffffffffff821691600160401b810463ffffffff90811692600160601b830490911691600160801b900462ffffff16906001600160a01b03811690600160a01b900460ff1686565b6040805167ffffffffffffffff97909716875263ffffffff9586166020880152939094169285019290925262ffffff1660608401526001600160a01b03166080830152151560a082015260c0016100df565b61012d610307366004610e9c565b610674565b34801561031857600080fd5b5061012d610327366004610c69565b6109d6565b60046020526000908152604090208054819061034790610f15565b80601f016020809104026020016040519081016040528092919081815260200182805461037390610f15565b80156103c05780601f10610395576101008083540402835291602001916103c0565b820191906000526020600020905b8154815290600101906020018083116103a357829003601f168201915b50505050600183015460028401546003850154600490950154939463ffffffff928316949193508281169264010000000082041691600160401b90910460ff169087565b600087815260036020526040902060018101546001600160a01b031633146104925760405162461bcd60e51b815260206004820152603660248201527f4e6f7420617574686f72697a656420746f207375626d6974207369676e61747560448201527572657320666f722074686973206461746173746f726560501b60648201526084015b60405180910390fd5b805467ffffffffffffffff8a81169116146104ef5760405162461bcd60e51b815260206004820152601860248201527f44756d70204e756d62657220697320696e636f727265637400000000000000006044820152606401610489565b600088815260036020526040902060010154600160a01b900460ff161561056e5760405162461bcd60e51b815260206004820152602d60248201527f446174612073746f726520616c72656164792068617320616c7265616479206260448201526c19595b8818dbdb5b5a5d1d1959609a1b6064820152608401610489565b61057d8787878787878e610aa1565b600088815260036020908152604091829020600101805460ff60a01b1916600160a01b17905581513381529081018a90527f0b6cc2ecff3b94112d44f2dbac8aee8eb02772c07b1e52605f0dc6d726bf0e31910160405180910390a1505050505050505050565b6000546001600160a01b0316331461063e5760405162461bcd60e51b815260206004820181905260248201527f4f776e61626c653a2063616c6c6572206973206e6f7420746865206f776e65726044820152606401610489565b6106486000610bfd565b565b6005818154811061065a57600080fd5b6000918252602090912001546001600160a01b0316905081565b6001546001600160a01b031633146106ce5760405162461bcd60e51b815260206004820152601f60248201527f4f6e6c792063757272656e74206469737065727365722063616e20696e6974006044820152606401610489565b60208463ffffffff16116107245760405162461bcd60e51b815260206004820152601e60248201527f43616e27742073746f7265206c657373207468616e20333320627974657300006044820152606401610489565b603c8363ffffffff16116107985760405162461bcd60e51b815260206004820152603560248201527f457870697279206d757374206265206174206c656173742031206d696e7574656044820152741030b33a32b91034b734ba34b0b634bd30ba34b7b760591b6064820152608401610489565b600085815260036020526040902054600160401b900463ffffffff161561080c5760405162461bcd60e51b815260206004820152602260248201527f446174612073746f72652068617320616c7265616479206265656e20696e6974604482015261195960f21b6064820152608401610489565b6040518060c001604052808767ffffffffffffffff1681526020014263ffffffff1681526020018463ffffffff1681526020018262ffffff168152602001836001600160a01b03168152602001600015158152506003600087815260200190815260200160002060008201518160000160006101000a81548167ffffffffffffffff021916908367ffffffffffffffff16021790555060208201518160000160086101000a81548163ffffffff021916908363ffffffff160217905550604082015181600001600c6101000a81548163ffffffff021916908363ffffffff16021790555060608201518160000160106101000a81548162ffffff021916908362ffffff16021790555060808201518160010160006101000a8154816001600160a01b0302191690836001600160a01b0316021790555060a08201518160010160146101000a81548160ff0219169083151502179055509050507f05cf19161245492a0bd4f94d77ccd11108a628325f3fa19c967d78e588f1fd3d338686846040516109c694939291906001600160a01b03949094168452602084019290925263ffffffff16604083015262ffffff16606082015260800190565b60405180910390a1505050505050565b6000546001600160a01b03163314610a305760405162461bcd60e51b815260206004820181905260248201527f4f776e61626c653a2063616c6c6572206973206e6f7420746865206f776e65726044820152606401610489565b6001600160a01b038116610a955760405162461bcd60e51b815260206004820152602660248201527f4f776e61626c653a206e6577206f776e657220697320746865207a65726f206160448201526564647265737360d01b6064820152608401610489565b610a9e81610bfd565b50565b60005b86811015610bf3576000600183868685818110610ac357610ac3610f50565b9050602002016020810190610ad89190610f66565b610ae390601b610f9f565b8b8b86818110610af557610af5610f50565b905060200201358a8a87818110610b0e57610b0e610f50565b9050602002013560405160008152602001604052604051610b4b949392919093845260ff9290921660208401526040830152606082015260800190565b6020604051602081039080840390855afa158015610b6d573d6000803e3d6000fd5b505060408051601f1901516001600160a01b038116600090815260046020529190912060030154909250600160401b900460ff169050610be05760405162461bcd60e51b815260206004820152600e60248201526d1859191c881b9bdd08195e1a5cdd60921b6044820152606401610489565b5080610beb81610fc4565b915050610aa4565b5050505050505050565b600080546001600160a01b038381166001600160a01b0319831681178455604051919092169283917f8be0079c531659141344cd1fd0a4f28419497f9722a3daafe3b4186f6b6457e09190a35050565b80356001600160a01b0381168114610c6457600080fd5b919050565b600060208284031215610c7b57600080fd5b610c8482610c4d565b9392505050565b60e08152600088518060e084015260005b81811015610cba576020818c01810151610100868401015201610c9c565b81811115610ccd57600061010083860101525b50601f01601f19168201610100019050610cef602083018963ffffffff169052565b866040830152610d07606083018763ffffffff169052565b63ffffffff94909416608082015291151560a083015260c090910152949350505050565b803567ffffffffffffffff81168114610c6457600080fd5b60008083601f840112610d5557600080fd5b50813567ffffffffffffffff811115610d6d57600080fd5b6020830191508360208260051b8501011115610d8857600080fd5b9250929050565b60008060008060008060008060a0898b031215610dab57600080fd5b610db489610d2b565b975060208901359650604089013567ffffffffffffffff80821115610dd857600080fd5b610de48c838d01610d43565b909850965060608b0135915080821115610dfd57600080fd5b610e098c838d01610d43565b909650945060808b0135915080821115610e2257600080fd5b50610e2f8b828c01610d43565b999c989b5096995094979396929594505050565b600060208284031215610e5557600080fd5b5035919050565b60008060408385031215610e6f57600080fd5b82359150610e7f60208401610c4d565b90509250929050565b803563ffffffff81168114610c6457600080fd5b60008060008060008060c08789031215610eb557600080fd5b610ebe87610d2b565b955060208701359450610ed360408801610e88565b9350610ee160608801610e88565b9250610eef60808801610c4d565b915060a087013562ffffff81168114610f0757600080fd5b809150509295509295509295565b600181811c90821680610f2957607f821691505b60208210811415610f4a57634e487b7160e01b600052602260045260246000fd5b50919050565b634e487b7160e01b600052603260045260246000fd5b600060208284031215610f7857600080fd5b813560ff81168114610c8457600080fd5b634e487b7160e01b600052601160045260246000fd5b600060ff821660ff84168060ff03821115610fbc57610fbc610f89565b019392505050565b6000600019821415610fd857610fd8610f89565b506001019056fea26469706673582212203137c9f7393509b7127cd1886b43c1cb2f603446c2bcf60ac46ea6474ad1ef5064736f6c634300080a0033",
    "linkReferences": {}
  }
}