{
  "abi": [
    {
      "inputs": [],
      "name": "checkSignatures",
      "outputs": [],
      "stateMutability": "nonpayable",
      "type": "function"
    },
    {
      "inputs": [
        {
          "internalType": "address",
          "name": "",
          "type": "address"
        }
      ],
      "name": "registry",
      "outputs": [
        {
          "internalType": "string",
          "name": "socket",
          "type": "string"
        },
        {
          "internalType": "uint32",
          "name": "id",
          "type": "uint32"
        },
        {
          "internalType": "uint256",
          "name": "index",
          "type": "uint256"
        },
        {
          "internalType": "uint32",
          "name": "from",
          "type": "uint32"
        },
        {
          "internalType": "uint32",
          "name": "to",
          "type": "uint32"
        },
        {
          "internalType": "bool",
          "name": "active",
          "type": "bool"
        },
        {
          "internalType": "uint256",
          "name": "stake",
          "type": "uint256"
        }
      ],
      "stateMutability": "view",
      "type": "function"
    }
  ],
  "bytecode": {
    "object": "0x608060405234801561001057600080fd5b506108b1806100206000396000f3fe608060405234801561001057600080fd5b50600436106100365760003560e01c8063038defd71461003b578063bff36f711461006a575b600080fd5b61004e6100493660046106b1565b610074565b60405161006197969594939291906106e1565b60405180910390f35b610072610151565b005b60006020819052908152604090208054819061008f90610781565b80601f01602080910402602001604051908101604052809291908181526020018280546100bb90610781565b80156101085780601f106100dd57610100808354040283529160200191610108565b820191906000526020600020905b8154815290600101906020018083116100eb57829003601f168201915b50505050600183015460028401546003850154600490950154939463ffffffff9283169491935082811692640100000000820416916801000000000000000090910460ff169087565b60043560f01c600063ffffffff600635826026818080808080805b8c61ffff168761ffff16101561039857873560f01c9b50600288013560e01c92506101986006896107d2565b975063ffffffff8b811614806101b957508a63ffffffff168363ffffffff16115b61020a5760405162461bcd60e51b815260206004820152601f60248201527f6261642062696e206f72646572696e67202d207265706561742062696e733f0060448201526064015b60405180910390fd5b829a506000805b8d61ffff168161ffff161015610384578935975060208a013596506102378c89896103a7565b955061024460408b6107d2565b6001600160a01b038716600090815260208190526040902060010154909a5063ffffffff80821695508e1660189190911c60ff16146102dc5760405162461bcd60e51b815260206004820152602e60248201527f696e76616c6964207369672062696e20696e646578202d20696d70726f70657260448201526d20736967206f72646572696e673f60901b6064820152608401610201565b6102e8610100856107fa565b63ffffffff166001901b92508282166000146103615760405162461bcd60e51b815260206004820152603260248201527f636c61696d20616c7265616479206d616465206f6e207468697320626974202d60448201527120726570656174207369676e61747572653f60701b6064820152608401610201565b9082179061037060018c61082b565b9a508061037c81610843565b915050610211565b508761038f81610843565b9850505061016c565b50505050505050505050505050565b60008060006103b78686866103cd565b915091506103c481610406565b50949350505050565b6000806001600160ff1b038316816103ea60ff86901c601b61082b565b90506103f8878288856105c4565b935093505050935093915050565b600081600481111561041a5761041a610865565b14156104235750565b600181600481111561043757610437610865565b14156104855760405162461bcd60e51b815260206004820152601860248201527f45434453413a20696e76616c6964207369676e617475726500000000000000006044820152606401610201565b600281600481111561049957610499610865565b14156104e75760405162461bcd60e51b815260206004820152601f60248201527f45434453413a20696e76616c6964207369676e6174757265206c656e677468006044820152606401610201565b60038160048111156104fb576104fb610865565b14156105545760405162461bcd60e51b815260206004820152602260248201527f45434453413a20696e76616c6964207369676e6174757265202773272076616c604482015261756560f01b6064820152608401610201565b600481600481111561056857610568610865565b14156105c15760405162461bcd60e51b815260206004820152602260248201527f45434453413a20696e76616c6964207369676e6174757265202776272076616c604482015261756560f01b6064820152608401610201565b50565b6000807f7fffffffffffffffffffffffffffffff5d576e7357a4501ddfe92f46681b20a08311156105fb57506000905060036106a8565b8460ff16601b1415801561061357508460ff16601c14155b1561062457506000905060046106a8565b6040805160008082526020820180845289905260ff881692820192909252606081018690526080810185905260019060a0016020604051602081039080840390855afa158015610678573d6000803e3d6000fd5b5050604051601f1901519150506001600160a01b0381166106a1576000600192509250506106a8565b9150600090505b94509492505050565b6000602082840312156106c357600080fd5b81356001600160a01b03811681146106da57600080fd5b9392505050565b60e08152600088518060e084015260005b81811015610710576020818c018101516101008684010152016106f2565b8181111561072357600061010083860101525b50601f01601f19168201610100019050610745602083018963ffffffff169052565b86604083015261075d606083018763ffffffff169052565b63ffffffff94909416608082015291151560a083015260c090910152949350505050565b600181811c9082168061079557607f821691505b602082108114156107b657634e487b7160e01b600052602260045260246000fd5b50919050565b634e487b7160e01b600052601160045260246000fd5b600063ffffffff8083168185168083038211156107f1576107f16107bc565b01949350505050565b600063ffffffff8084168061081f57634e487b7160e01b600052601260045260246000fd5b92169190910692915050565b6000821982111561083e5761083e6107bc565b500190565b600061ffff8083168181141561085b5761085b6107bc565b6001019392505050565b634e487b7160e01b600052602160045260246000fdfea2646970667358221220a432dbb4391c4ad23c13611fa094a914d1e6df27988ad22578a3365e4a612ff664736f6c634300080a0033",
    "linkReferences": {}
  }
}